{
  "_format": "hh-sol-artifact-1",
  "contractName": "CRUD",
  "sourceName": "contracts/CRUD.sol",
  "abi": [
    {
      "anonymous": false,
      "inputs": [
        {
          "indexed": true,
          "internalType": "address",
          "name": "previousOwner",
          "type": "address"
        },
        {
          "indexed": true,
          "internalType": "address",
          "name": "newOwner",
          "type": "address"
        }
      ],
      "name": "OwnershipTransferred",
      "type": "event"
    },
    {
      "inputs": [
        {
          "internalType": "string",
          "name": "key",
          "type": "string"
        }
      ],
      "name": "getHashArray",
      "outputs": [
        {
          "internalType": "string[]",
          "name": "",
          "type": "string[]"
        }
      ],
      "stateMutability": "view",
      "type": "function"
    },
    {
      "inputs": [],
      "name": "owner",
      "outputs": [
        {
          "internalType": "address",
          "name": "",
          "type": "address"
        }
      ],
      "stateMutability": "view",
      "type": "function"
    },
    {
      "inputs": [
        {
          "internalType": "string",
          "name": "key",
          "type": "string"
        },
        {
          "internalType": "string",
          "name": "value",
          "type": "string"
        }
      ],
      "name": "pushHash",
      "outputs": [],
      "stateMutability": "nonpayable",
      "type": "function"
    },
    {
      "inputs": [],
      "name": "renounceOwnership",
      "outputs": [],
      "stateMutability": "nonpayable",
      "type": "function"
    },
    {
      "inputs": [
        {
          "internalType": "address",
          "name": "newOwner",
          "type": "address"
        }
      ],
      "name": "transferOwnership",
      "outputs": [],
      "stateMutability": "nonpayable",
      "type": "function"
    }
  ],
  "bytecode": "0x608060405234801561001057600080fd5b5061002d61002261003260201b60201c565b61003a60201b60201c565b6100fe565b600033905090565b60008060009054906101000a900473ffffffffffffffffffffffffffffffffffffffff169050816000806101000a81548173ffffffffffffffffffffffffffffffffffffffff021916908373ffffffffffffffffffffffffffffffffffffffff1602179055508173ffffffffffffffffffffffffffffffffffffffff168173ffffffffffffffffffffffffffffffffffffffff167f8be0079c531659141344cd1fd0a4f28419497f9722a3daafe3b4186f6b6457e060405160405180910390a35050565b610b498061010d6000396000f3fe608060405234801561001057600080fd5b50600436106100575760003560e01c8063715018a61461005c5780638da5cb5b14610066578063a7a4f89314610084578063baa7677d146100a0578063f2fde38b146100d0575b600080fd5b6100646100ec565b005b61006e610174565b60405161007b919061061d565b60405180910390f35b61009e600480360381019061009991906106a7565b61019d565b005b6100ba60048036038101906100b59190610728565b61027b565b6040516100c791906108d0565b60405180910390f35b6100ea60048036038101906100e5919061091e565b610375565b005b6100f461046d565b73ffffffffffffffffffffffffffffffffffffffff16610112610174565b73ffffffffffffffffffffffffffffffffffffffff1614610168576040517f08c379a000000000000000000000000000000000000000000000000000000000815260040161015f906109a8565b60405180910390fd5b6101726000610475565b565b60008060009054906101000a900473ffffffffffffffffffffffffffffffffffffffff16905090565b6101a561046d565b73ffffffffffffffffffffffffffffffffffffffff166101c3610174565b73ffffffffffffffffffffffffffffffffffffffff1614610219576040517f08c379a0000000000000000000000000000000000000000000000000000000008152600401610210906109a8565b60405180910390fd5b6001848460405161022b929190610a07565b9081526020016040518091039020828290918060018154018082558091505060019003906000526020600020016000909192909192909192909192509190610274929190610539565b5050505050565b60606001838360405161028f929190610a07565b9081526020016040518091039020805480602002602001604051908101604052809291908181526020016000905b828210156103695783829060005260206000200180546102dc90610a4f565b80601f016020809104026020016040519081016040528092919081815260200182805461030890610a4f565b80156103555780601f1061032a57610100808354040283529160200191610355565b820191906000526020600020905b81548152906001019060200180831161033857829003601f168201915b5050505050815260200190600101906102bd565b50505050905092915050565b61037d61046d565b73ffffffffffffffffffffffffffffffffffffffff1661039b610174565b73ffffffffffffffffffffffffffffffffffffffff16146103f1576040517f08c379a00000000000000000000000000000000000000000000000000000000081526004016103e8906109a8565b60405180910390fd5b600073ffffffffffffffffffffffffffffffffffffffff168173ffffffffffffffffffffffffffffffffffffffff161415610461576040517f08c379a000000000000000000000000000000000000000000000000000000000815260040161045890610af3565b60405180910390fd5b61046a81610475565b50565b600033905090565b60008060009054906101000a900473ffffffffffffffffffffffffffffffffffffffff169050816000806101000a81548173ffffffffffffffffffffffffffffffffffffffff021916908373ffffffffffffffffffffffffffffffffffffffff1602179055508173ffffffffffffffffffffffffffffffffffffffff168173ffffffffffffffffffffffffffffffffffffffff167f8be0079c531659141344cd1fd0a4f28419497f9722a3daafe3b4186f6b6457e060405160405180910390a35050565b82805461054590610a4f565b90600052602060002090601f01602090048101928261056757600085556105ae565b82601f1061058057803560ff19168380011785556105ae565b828001600101855582156105ae579182015b828111156105ad578235825591602001919060010190610592565b5b5090506105bb91906105bf565b5090565b5b808211156105d85760008160009055506001016105c0565b5090565b600073ffffffffffffffffffffffffffffffffffffffff82169050919050565b6000610607826105dc565b9050919050565b610617816105fc565b82525050565b6000602082019050610632600083018461060e565b92915050565b600080fd5b600080fd5b600080fd5b600080fd5b600080fd5b60008083601f84011261066757610666610642565b5b8235905067ffffffffffffffff81111561068457610683610647565b5b6020830191508360018202830111156106a05761069f61064c565b5b9250929050565b600080600080604085870312156106c1576106c0610638565b5b600085013567ffffffffffffffff8111156106df576106de61063d565b5b6106eb87828801610651565b9450945050602085013567ffffffffffffffff81111561070e5761070d61063d565b5b61071a87828801610651565b925092505092959194509250565b6000806020838503121561073f5761073e610638565b5b600083013567ffffffffffffffff81111561075d5761075c61063d565b5b61076985828601610651565b92509250509250929050565b600081519050919050565b600082825260208201905092915050565b6000819050602082019050919050565b600081519050919050565b600082825260208201905092915050565b60005b838110156107db5780820151818401526020810190506107c0565b838111156107ea576000848401525b50505050565b6000601f19601f8301169050919050565b600061080c826107a1565b61081681856107ac565b93506108268185602086016107bd565b61082f816107f0565b840191505092915050565b60006108468383610801565b905092915050565b6000602082019050919050565b600061086682610775565b6108708185610780565b93508360208202850161088285610791565b8060005b858110156108be578484038952815161089f858261083a565b94506108aa8361084e565b925060208a01995050600181019050610886565b50829750879550505050505092915050565b600060208201905081810360008301526108ea818461085b565b905092915050565b6108fb816105fc565b811461090657600080fd5b50565b600081359050610918816108f2565b92915050565b60006020828403121561093457610933610638565b5b600061094284828501610909565b91505092915050565b600082825260208201905092915050565b7f4f776e61626c653a2063616c6c6572206973206e6f7420746865206f776e6572600082015250565b600061099260208361094b565b915061099d8261095c565b602082019050919050565b600060208201905081810360008301526109c181610985565b9050919050565b600081905092915050565b82818337600083830152505050565b60006109ee83856109c8565b93506109fb8385846109d3565b82840190509392505050565b6000610a148284866109e2565b91508190509392505050565b7f4e487b7100000000000000000000000000000000000000000000000000000000600052602260045260246000fd5b60006002820490506001821680610a6757607f821691505b60208210811415610a7b57610a7a610a20565b5b50919050565b7f4f776e61626c653a206e6577206f776e657220697320746865207a65726f206160008201527f6464726573730000000000000000000000000000000000000000000000000000602082015250565b6000610add60268361094b565b9150610ae882610a81565b604082019050919050565b60006020820190508181036000830152610b0c81610ad0565b905091905056fea2646970667358221220cca3576d5a6c055177602ec7484b6c98b622ee06c620305ee92a261d5a43685664736f6c63430008090033",
  "linkReferences": {},
  "deployedLinkReferences": {}
}