{
  "_format": "hh-sol-artifact-1",
  "contractName": "iot",
  "sourceName": "contracts/iot.sol",
  "abi": [
    {
      "anonymous": false,
      "inputs": [
        {
          "indexed": true,
          "internalType": "address",
          "name": "previousOwner",
          "type": "address"
        },
        {
          "indexed": true,
          "internalType": "address",
          "name": "newOwner",
          "type": "address"
        }
      ],
      "name": "OwnershipTransferred",
      "type": "event"
    },
    {
      "inputs": [
        {
          "internalType": "string",
          "name": "key",
          "type": "string"
        }
      ],
      "name": "get_array",
      "outputs": [
        {
          "internalType": "string[]",
          "name": "",
          "type": "string[]"
        }
      ],
      "stateMutability": "view",
      "type": "function"
    },
    {
      "inputs": [
        {
          "internalType": "string",
          "name": "rs_key",
          "type": "string"
        }
      ],
      "name": "get_renewable_share",
      "outputs": [
        {
          "internalType": "uint8[]",
          "name": "",
          "type": "uint8[]"
        }
      ],
      "stateMutability": "view",
      "type": "function"
    },
    {
      "inputs": [
        {
          "internalType": "string",
          "name": "rs_key",
          "type": "string"
        }
      ],
      "name": "get_total_energy_saved",
      "outputs": [
        {
          "internalType": "uint16",
          "name": "",
          "type": "uint16"
        }
      ],
      "stateMutability": "view",
      "type": "function"
    },
    {
      "inputs": [],
      "name": "owner",
      "outputs": [
        {
          "internalType": "address",
          "name": "",
          "type": "address"
        }
      ],
      "stateMutability": "view",
      "type": "function"
    },
    {
      "inputs": [
        {
          "internalType": "string",
          "name": "key",
          "type": "string"
        },
        {
          "internalType": "string[]",
          "name": "values",
          "type": "string[]"
        }
      ],
      "name": "push_on_off",
      "outputs": [],
      "stateMutability": "nonpayable",
      "type": "function"
    },
    {
      "inputs": [
        {
          "internalType": "string",
          "name": "rs_key",
          "type": "string"
        },
        {
          "internalType": "uint8[]",
          "name": "shares",
          "type": "uint8[]"
        }
      ],
      "name": "push_renewable_share",
      "outputs": [],
      "stateMutability": "nonpayable",
      "type": "function"
    },
    {
      "inputs": [
        {
          "internalType": "string",
          "name": "key",
          "type": "string"
        },
        {
          "internalType": "uint16",
          "name": "value",
          "type": "uint16"
        }
      ],
      "name": "push_total_energy_saved",
      "outputs": [],
      "stateMutability": "nonpayable",
      "type": "function"
    },
    {
      "inputs": [],
      "name": "renounceOwnership",
      "outputs": [],
      "stateMutability": "nonpayable",
      "type": "function"
    },
    {
      "inputs": [
        {
          "internalType": "address",
          "name": "newOwner",
          "type": "address"
        }
      ],
      "name": "transferOwnership",
      "outputs": [],
      "stateMutability": "nonpayable",
      "type": "function"
    }
  ],
  "bytecode": "0x608060405234801561001057600080fd5b5061002d61002261003260201b60201c565b61003a60201b60201c565b6100fe565b600033905090565b60008060009054906101000a900473ffffffffffffffffffffffffffffffffffffffff169050816000806101000a81548173ffffffffffffffffffffffffffffffffffffffff021916908373ffffffffffffffffffffffffffffffffffffffff1602179055508173ffffffffffffffffffffffffffffffffffffffff168173ffffffffffffffffffffffffffffffffffffffff167f8be0079c531659141344cd1fd0a4f28419497f9722a3daafe3b4186f6b6457e060405160405180910390a35050565b6111b88061010d6000396000f3fe608060405234801561001057600080fd5b50600436106100935760003560e01c80638da5cb5b116100665780638da5cb5b1461011e578063902559701461013c578063edbf98f214610158578063f2fde38b14610188578063ff89cfd0146101a457610093565b806311dbfe7f146100985780634fb3b4e2146100c85780636d8ead5c146100e4578063715018a614610114575b600080fd5b6100b260048036038101906100ad9190610860565b6101c0565b6040516100bf91906108ca565b60405180910390f35b6100e260048036038101906100dd9190610911565b6101f9565b005b6100fe60048036038101906100f99190610860565b610241565b60405161010b9190610a3c565b60405180910390f35b61011c6102e0565b005b6101266102f4565b6040516101339190610a9f565b60405180910390f35b61015660048036038101906101519190610b10565b61031d565b005b610172600480360381019061016d9190610860565b6103d7565b60405161017f9190610cec565b60405180910390f35b6101a2600480360381019061019d9190610d3a565b6104d1565b005b6101be60048036038101906101b99190610dbd565b610555565b005b6000600383836040516101d4929190610e7d565b908152602001604051809103902060009054906101000a900461ffff16905092915050565b610201610604565b8060038484604051610214929190610e7d565b908152602001604051809103902060006101000a81548161ffff021916908361ffff160217905550505050565b606060028383604051610255929190610e7d565b90815260200160405180910390208054806020026020016040519081016040528092919081815260200182805480156102d357602002820191906000526020600020906000905b82829054906101000a900460ff1660ff168152602001906001019060208260000104928301926001038202915080841161029c5790505b5050505050905092915050565b6102e8610604565b6102f26000610682565b565b60008060009054906101000a900473ffffffffffffffffffffffffffffffffffffffff16905090565b610325610604565b60005b828290508110156103d05760028585604051610345929190610e7d565b908152602001604051809103902083838381811061036657610365610e96565b5b905060200201602081019061037b9190610ef1565b90806001815401808255809150506001900390600052602060002090602091828204019190069091909190916101000a81548160ff021916908360ff16021790555080806103c890610f57565b915050610328565b5050505050565b6060600183836040516103eb929190610e7d565b9081526020016040518091039020805480602002602001604051908101604052809291908181526020016000905b828210156104c557838290600052602060002001805461043890610fcf565b80601f016020809104026020016040519081016040528092919081815260200182805461046490610fcf565b80156104b15780601f10610486576101008083540402835291602001916104b1565b820191906000526020600020905b81548152906001019060200180831161049457829003601f168201915b505050505081526020019060010190610419565b50505050905092915050565b6104d9610604565b600073ffffffffffffffffffffffffffffffffffffffff168173ffffffffffffffffffffffffffffffffffffffff161415610549576040517f08c379a000000000000000000000000000000000000000000000000000000000815260040161054090611084565b60405180910390fd5b61055281610682565b50565b61055d610604565b60005b828290508110156105fd576001858560405161057d929190610e7d565b908152602001604051809103902083838381811061059e5761059d610e96565b5b90506020028101906105b091906110b3565b909180600181540180825580915050600190039060005260206000200160009091929091929091929091925091906105e992919061074e565b5080806105f590610f57565b915050610560565b5050505050565b61060c610746565b73ffffffffffffffffffffffffffffffffffffffff1661062a6102f4565b73ffffffffffffffffffffffffffffffffffffffff1614610680576040517f08c379a000000000000000000000000000000000000000000000000000000000815260040161067790611162565b60405180910390fd5b565b60008060009054906101000a900473ffffffffffffffffffffffffffffffffffffffff169050816000806101000a81548173ffffffffffffffffffffffffffffffffffffffff021916908373ffffffffffffffffffffffffffffffffffffffff1602179055508173ffffffffffffffffffffffffffffffffffffffff168173ffffffffffffffffffffffffffffffffffffffff167f8be0079c531659141344cd1fd0a4f28419497f9722a3daafe3b4186f6b6457e060405160405180910390a35050565b600033905090565b82805461075a90610fcf565b90600052602060002090601f01602090048101928261077c57600085556107c3565b82601f1061079557803560ff19168380011785556107c3565b828001600101855582156107c3579182015b828111156107c25782358255916020019190600101906107a7565b5b5090506107d091906107d4565b5090565b5b808211156107ed5760008160009055506001016107d5565b5090565b600080fd5b600080fd5b600080fd5b600080fd5b600080fd5b60008083601f8401126108205761081f6107fb565b5b8235905067ffffffffffffffff81111561083d5761083c610800565b5b60208301915083600182028301111561085957610858610805565b5b9250929050565b60008060208385031215610877576108766107f1565b5b600083013567ffffffffffffffff811115610895576108946107f6565b5b6108a18582860161080a565b92509250509250929050565b600061ffff82169050919050565b6108c4816108ad565b82525050565b60006020820190506108df60008301846108bb565b92915050565b6108ee816108ad565b81146108f957600080fd5b50565b60008135905061090b816108e5565b92915050565b60008060006040848603121561092a576109296107f1565b5b600084013567ffffffffffffffff811115610948576109476107f6565b5b6109548682870161080a565b93509350506020610967868287016108fc565b9150509250925092565b600081519050919050565b600082825260208201905092915050565b6000819050602082019050919050565b600060ff82169050919050565b6109b38161099d565b82525050565b60006109c583836109aa565b60208301905092915050565b6000602082019050919050565b60006109e982610971565b6109f3818561097c565b93506109fe8361098d565b8060005b83811015610a2f578151610a1688826109b9565b9750610a21836109d1565b925050600181019050610a02565b5085935050505092915050565b60006020820190508181036000830152610a5681846109de565b905092915050565b600073ffffffffffffffffffffffffffffffffffffffff82169050919050565b6000610a8982610a5e565b9050919050565b610a9981610a7e565b82525050565b6000602082019050610ab46000830184610a90565b92915050565b60008083601f840112610ad057610acf6107fb565b5b8235905067ffffffffffffffff811115610aed57610aec610800565b5b602083019150836020820283011115610b0957610b08610805565b5b9250929050565b60008060008060408587031215610b2a57610b296107f1565b5b600085013567ffffffffffffffff811115610b4857610b476107f6565b5b610b548782880161080a565b9450945050602085013567ffffffffffffffff811115610b7757610b766107f6565b5b610b8387828801610aba565b925092505092959194509250565b600081519050919050565b600082825260208201905092915050565b6000819050602082019050919050565b600081519050919050565b600082825260208201905092915050565b60005b83811015610bf7578082015181840152602081019050610bdc565b83811115610c06576000848401525b50505050565b6000601f19601f8301169050919050565b6000610c2882610bbd565b610c328185610bc8565b9350610c42818560208601610bd9565b610c4b81610c0c565b840191505092915050565b6000610c628383610c1d565b905092915050565b6000602082019050919050565b6000610c8282610b91565b610c8c8185610b9c565b935083602082028501610c9e85610bad565b8060005b85811015610cda5784840389528151610cbb8582610c56565b9450610cc683610c6a565b925060208a01995050600181019050610ca2565b50829750879550505050505092915050565b60006020820190508181036000830152610d068184610c77565b905092915050565b610d1781610a7e565b8114610d2257600080fd5b50565b600081359050610d3481610d0e565b92915050565b600060208284031215610d5057610d4f6107f1565b5b6000610d5e84828501610d25565b91505092915050565b60008083601f840112610d7d57610d7c6107fb565b5b8235905067ffffffffffffffff811115610d9a57610d99610800565b5b602083019150836020820283011115610db657610db5610805565b5b9250929050565b60008060008060408587031215610dd757610dd66107f1565b5b600085013567ffffffffffffffff811115610df557610df46107f6565b5b610e018782880161080a565b9450945050602085013567ffffffffffffffff811115610e2457610e236107f6565b5b610e3087828801610d67565b925092505092959194509250565b600081905092915050565b82818337600083830152505050565b6000610e648385610e3e565b9350610e71838584610e49565b82840190509392505050565b6000610e8a828486610e58565b91508190509392505050565b7f4e487b7100000000000000000000000000000000000000000000000000000000600052603260045260246000fd5b610ece8161099d565b8114610ed957600080fd5b50565b600081359050610eeb81610ec5565b92915050565b600060208284031215610f0757610f066107f1565b5b6000610f1584828501610edc565b91505092915050565b7f4e487b7100000000000000000000000000000000000000000000000000000000600052601160045260246000fd5b6000819050919050565b6000610f6282610f4d565b91507fffffffffffffffffffffffffffffffffffffffffffffffffffffffffffffffff821415610f9557610f94610f1e565b5b600182019050919050565b7f4e487b7100000000000000000000000000000000000000000000000000000000600052602260045260246000fd5b60006002820490506001821680610fe757607f821691505b60208210811415610ffb57610ffa610fa0565b5b50919050565b600082825260208201905092915050565b7f4f776e61626c653a206e6577206f776e657220697320746865207a65726f206160008201527f6464726573730000000000000000000000000000000000000000000000000000602082015250565b600061106e602683611001565b915061107982611012565b604082019050919050565b6000602082019050818103600083015261109d81611061565b9050919050565b600080fd5b600080fd5b600080fd5b600080833560016020038436030381126110d0576110cf6110a4565b5b80840192508235915067ffffffffffffffff8211156110f2576110f16110a9565b5b60208301925060018202360383131561110e5761110d6110ae565b5b509250929050565b7f4f776e61626c653a2063616c6c6572206973206e6f7420746865206f776e6572600082015250565b600061114c602083611001565b915061115782611116565b602082019050919050565b6000602082019050818103600083015261117b8161113f565b905091905056fea2646970667358221220b13cafe2517373d62492f19c08ae0d09a256847905b4b8e17d044985084b503064736f6c63430008090033",
  "linkReferences": {},
  "deployedLinkReferences": {}
}